:100000000C945D000C9485000C9485000C94850084
:100010000C9485000C9485000C9485000C9485004C
:100020000C9485000C9485000C9485000C942E0390
:100030000C9485000C9485000C9485000C9485002C
:100040000C94E4020C9485000C94B2020C948C0283
:100050000C9485000C9485000C9485000C9485000C
:100060000C9485000C94850000000008000201003B
:100070000003040700000000000000000000000072
:10008000250028002B0000000000240027002A0083
:10009000040404040404040402020202020203032E
:1000A0000303030301020408102040800102040836
:1000B0001020010204081020E60511241FBECFEF16
:1000C000D8E0DEBFCDBF23E0AEE3B1E001C01D92BA
:1000D000AE30B207E1F711E0A0E0B1E0E4E1F1E118
:1000E00002C005900D92AE33B107D9F710E0CDE50F
:1000F000D0E004C02197FE010E947606CC35D107DE
:10010000C9F70E949A030C9488080C94000090E0B0
:10011000FC01EC55FF4F249180579F4FFC018491C7
:10012000882399F090E0880F991FFC01EA57FF4F50
:10013000A591B491FC01E458FF4F859194918FB73C
:10014000F894EC91E22BEC938FBF0895AF92BF929D
:10015000CF92DF92EF92FF920F931F93CF93DF9393
:100160006C017B018B01040F151FEB015E01AE18C2
:10017000BF08C017D10759F06991D601ED91FC91E4
:100180000190F081E02DC6010995892B79F7C50111
:10019000DF91CF911F910F91FF90EF90DF90CF9063
:1001A000BF90AF900895FC01538D448D252F30E012
:1001B000842F90E0821B930B541710F0CF96089574
:1001C00001970895FC01918D828D981761F0A28DA1
:1001D000AE0FBF2FB11D5D968C91928D9F5F9F7367
:1001E000928F90E008958FEF9FEF08952FB7F894C6
:1001F0008091670290916802A0916902B0916A02B1
:100200002FBF8093730290937402A0937502B093F2
:1002100076028BE692E00E94E20097FF26C02FB79D
:10022000F8948091670290916802A0916902B09160
:100230006A022FBF4091730250917402609175025F
:1002400070917602841B950BA60BB70B40916F0241
:10025000509170026091710270917202841795073B
:10026000A607B707B0F28FEF9FEF0895FC01918DBD
:10027000828D981731F0828DE80FF11D858D90E009
:1002800008958FEF9FEF0895FC01918D228D892FA6
:1002900090E0805C9F4F821B91098F73992708958E
:1002A0008BE692E00E94440121E0892B09F420E0D2
:1002B000822F089580E090E0892B29F00E94500160
:1002C00081110C9400000895FC01A48DA80FB92F92
:1002D000B11DA35ABF4F2C91848D90E001968F736E
:1002E0009927848FA689B7892C93A089B1898C918D
:1002F000837080648C93938D848D981306C00288DC
:10030000F389E02D80818F7D80830895EF92FF92A5
:100310000F931F93CF93DF93EC0181E0888F9B8D28
:100320008C8D98131AC0E889F989808185FF15C0E2
:100330009FB7F894EE89FF896083E889F989808105
:100340008370806480839FBF81E090E0DF91CF91D4
:100350001F910F91FF90EF900895F62E0B8D10E0F6
:100360000F5F1F4F0F731127E02E8C8D8E110CC065
:100370000FB607FCFACFE889F989808185FFF5CFB0
:10038000CE010E946401F1CFEB8DEC0FFD2FF11D2A
:10039000E35AFF4FF0829FB7F8940B8FEA89FB89ED
:1003A00080818062CFCFCF93DF93EC01888D88234B
:1003B000B9F0AA89BB89E889F9898C9185FD03C0C8
:1003C000808186FD0DC00FB607FCF7CF8C9185FFAD
:1003D000F2CF808185FFEDCFCE010E946401E9CF8D
:1003E000DF91CF91089590E0FC01E859FF4F2491EF
:1003F000FC01EC55FF4F3491FC01E057FF4FE491B5
:10040000EE23C9F0222339F0233001F1A8F4213082
:1004100019F1223029F1F0E0EE0FFF1FE458FF4FF1
:10042000A591B4918FB7F894EC91611126C03095E5
:100430003E233C938FBF08952730A9F02830C9F0A0
:10044000243049F7809180008F7D03C08091800027
:100450008F7780938000DFCF84B58F7784BDDBCF2B
:1004600084B58F7DFBCF8091B0008F778093B000F3
:10047000D2CF8091B0008F7DF9CF3E2BDACF3FB73E
:10048000F89480913F0190914001A0914101B09179
:10049000420126B5A89B05C02F3F19F00196A11D6A
:1004A000B11D3FBFBA2FA92F982F8827BC01CD01BE
:1004B000620F711D811D911D42E0660F771F881F1D
:1004C000991F4A95D1F708950F931F93CF93DF9308
:1004D000EC0188819981009759F02A813B81261788
:1004E000370730F081E0DF91CF911F910F91089590
:1004F0008B016F5F7F4F0E94A107009759F099838E
:1005000088831B830A832C813D81232B59F7FC01AF
:100510001082E8CF80E0E7CF1F920F920FB60F92C4
:1005200011242F933F934F935F936F937F938F93F8
:100530009F93AF93BF93EF93FF938BE692E00E945C
:100540006401FF91EF91BF91AF919F918F917F9146
:100550006F915F914F913F912F910F900FBE0F9030
:100560001F9018951F920F920FB60F9211242F9380
:100570008F939F93EF93FF93E0917B02F0917C0226
:100580008081E0918102F091820282FD1BC0908106
:10059000809184028F5F8F7320918502821741F0D2
:1005A000E0918402F0E0E559FD4F958F809384023D
:1005B000FF91EF919F918F912F910F900FBE0F9010
:1005C0001F9018958081F4CF1F920F920FB60F9253
:1005D00011242F933F938F939F93AF93BF93809159
:1005E000670290916802A0916902B0916A0230910D
:1005F0003E0123E0230F2D3758F50196A11DB11DB3
:1006000020933E018093670290936802A093690251
:10061000B0936A0280913F0190914001A091410105
:10062000B09142010196A11DB11D80933F019093AD
:100630004001A0934101B0934201BF91AF919F91BE
:100640008F913F912F910F900FBE0F901F90189593
:1006500026E8230F0296A11DB11DD2CF1F920F9243
:100660000FB60F9211242F933F934F935F938F9365
:100670009F93EF93FF9385B194E0892785B980918B
:100680006102909162020197F1F180E480937C0015
:1006900080917A00806480937A0080917A0086FD50
:1006A000FCCF90917800809179008927982789273D
:1006B0002091650230916602F901EF59FE4FAC01BD
:1006C000440F452F441F550B406840832F5F3F4F19
:1006D000211541E0340721F1309366022093650231
:1006E0002091650230916602F901EF59FE4F8F7734
:1006F00080832F5F3F4F211581E03807B1F03093A1
:10070000660220936502FF91EF919F918F915F9117
:100710004F913F912F910F900FBE0F901F90189502
:100720001092660210926502DBCF10926602109260
:100730006502E9CFCF93DF93CDB7DEB728970FB629
:10074000F894DEBF0FBECDBF789484B5826084BDBF
:1007500084B5816084BD85B5826085BD85B58160C5
:1007600085BD80916E00816080936E001092810043
:1007700080918100826080938100809181008160FE
:1007800080938100809180008160809380008091BF
:10079000B10084608093B1008091B000816080934B
:1007A000B00080917A00846080937A0080917A0012
:1007B000826080937A0080917A00816080937A00D1
:1007C00080917A00806880937A001092C100E09155
:1007D0007B02F0917C0282E08083E0917702F091CD
:1007E00078021082E0917902F0917A0288E08083A9
:1007F00010928302E0917F02F091800286E0808374
:10080000E0917D02F0917E02808180618083E091A1
:100810007D02F0917E02808188608083E0917D027C
:10082000F0917E02808180688083E0917D02F0916A
:100830007E0280818F7D80830E943F024B015C019C
:100840004CE2C42EDD24D394E12CF12C0E943F0213
:10085000681979098A099B09683E734081059105E9
:10086000A8F321E0C21AD108E108F10888EE880E49
:1008700083E0981EA11CB11CC114D104E104F10451
:1008800029F748E050E064E271E08BE692E00E94D4
:10089000A60042E050E06DE271E08BE692E00E943B
:1008A000A60082E090E0A0E0B0E080936F02909319
:1008B0007002A0937102B09372028AE00E948700D6
:1008C0008DE00E94870061E08DE00E94F30182E0EC
:1008D0000E94870083E00E94870084E00E948700D6
:1008E00085E00E94870086E00E94870087E00E94E2
:1008F000870088E00E94870060E082E00E94F301A8
:1009000060E083E00E94F30160E084E00E94F30174
:1009100060E085E00E94F30160E086E00E94F30160
:1009200060E087E00E94F30160E088E00E94F3014C
:10093000F89480917A00846080937A0080917A00A4
:100940008D7F80937A0080917A008E7F80937A00E9
:100950001092800010928100109285001092840005
:1009600086EC90E0909389008093880080918100CC
:1009700088608093810080918100826080938100F3
:1009800080916F00826080936F00789480916F00F7
:10099000826080936F002EE1E22E21E0F22ECC24C3
:1009A000C394D12C90E0A92E90E0B92E009163025F
:1009B0001091640280916502909166028017910700
:1009C000E9F080916102909162020197B9F0F8011B
:1009D000EF59FE4F60818BE692E00E9486010F5F27
:1009E0001F4F10936402009363020F3F1105F1F251
:1009F000ECF21092640210926302D8CF8BE692E080
:100A00000E944401181619060CF0D4C0D09262025C
:100A1000C09261021A8219821C821B821E821D8270
:100A200070E060E0CE0101960E94640229813A8163
:100A300081112EC02115310519F0C9010E94180736
:100A40001A8219821E821D821C821B820E94F6005D
:100A50000D811E8197FD24C08A30910509F18F8395
:100A600018860F5F1F4FB801CE0101960E946402E5
:100A7000882361F329813A818D819E81BE01695F5E
:100A80007F4F820F931F0E9472081E830D83DECF5B
:100A90001E821D826FE271E0C9010E947208D6CFEA
:100AA0000115110509F04EC010924301F801ED5BEC
:100AB000FE4F10826BE371E083E491E00E94130625
:100AC000009709F46FC06AE370E00E94670800971E
:100AD00009F463C0FC0110822291233611F4FC0159
:100AE00031968081823609F058C0809165029091DC
:100AF0006602EEE1F1E09C012F5F3F4F41918F597B
:100B00009E4FDC014C9390E080E02115B1E03B0763
:100B100009F0C90121E0E432F20769F7E0E3F1E00E
:100B200041919C012F5F3F4F4423F9F08F599E4F15
:100B3000DC014C932115B1E03B0711F430E020E0DB
:100B4000C901EECF8DE1882E912C0D31110508F4ED
:100B5000480169817A81A40183E491E00E947908C7
:100B6000F401ED5BFE4F1082A1CFE8E1F1E09C01C2
:100B70002F5F3F4F41918F599E4FDC014C9390E086
:100B800080E02115B1E03B0709F0C901EE16FF0630
:100B900071F790936602809365026BE371E090E0D9
:100BA00080E08CCF109262021092610289819A815A
:100BB0000E941807A114B10409F4F8CE0E94500154
:100BC000882309F4EFCE0E940000ECCEEBE6F2E0C1
:100BD0001382128288EE93E0A0E0B0E084839583D4
:100BE000A683B7838AE091E09183808385EC90E0CF
:100BF0009587848784EC90E09787868780EC90E0E7
:100C0000918B808B81EC90E0938B828B82EC90E0D7
:100C1000958B848B86EC90E0978B868B118E128E51
:100C2000138E148E089548E053E00E94180608952C
:100C3000FA01A191B081009719F41097E1F0CD016C
:100C4000DC01CD010D90002011F4C00113C0FB01A7
:100C50002191222319F02015D9F7F3CFFB0121911F
:100C6000201519F41E92119606C02223C1F70D908B
:100C70000020A1F7D001FA01A193B08308952F922B
:100C80003F924F925F926F927F928F929F92AF921C
:100C9000BF92CF92DF92EF92FF920F931F93CF9369
:100CA000DF93CDB7DEB7CA1BDB0B0FB6F894DEBF00
:100CB0000FBECDBF09942A88398848885F846E8426
:100CC0007D848C849B84AA84B984C884DF80EE8070
:100CD000FD800C811B81AA81B981CE0FD11D0FB679
:100CE000F894DEBF0FBECDBFED010895EE0FFF1FDC
:100CF0000590F491E02D09940F931F93CF93DF9308
:100D00008230910510F482E090E0E0910C03F091C4
:100D10000D0330E020E0B0E0A0E0309799F4211519
:100D2000310509F44AC0281B390B24303105D8F5A8
:100D30008A819B816115710589F1FB01938382830F
:100D4000FE0111C04081518102811381481759076A
:100D5000E0F04817590799F4109761F012960C9338
:100D6000129713961C933296CF01DF91CF911F916A
:100D70000F91089500930C0310930D03F4CF2115E8
:100D8000310551F04217530738F0A901DB019A01F0
:100D9000BD01DF01F801C1CFEF01F9CF90930D0341
:100DA00080930C03CDCFFE01E20FF31F819391934B
:100DB0002250310939832883D7CF20910A033091FB
:100DC0000B03232B41F42091020130910301309356
:100DD0000B0320930A03209100013091010121159A
:100DE000310541F42DB73EB7409104015091050102
:100DF000241B350BE0910A03F0910B03E217F30774
:100E0000A0F42E1B3F0B2817390778F0AC014E5F7A
:100E10005F4F2417350748F04E0F5F1F50930B03A9
:100E200040930A03819391939FCFF0E0E0E09CCF41
:100E3000CF93DF930097E9F0FC013297138212827F
:100E4000A0910C03B0910D03ED0130E020E010976C
:100E5000A1F420813181820F931F20910A033091E8
:100E60000B032817390709F061C0F0930B03E093D7
:100E70000A03DF91CF910895EA01CE17DF07E8F565
:100E80004A815B819E0141155105B1F7E901FB8360
:100E9000EA8349915991C40FD51FEC17FD0761F4FE
:100EA000808191810296840F951FE901998388833F
:100EB000828193819B838A83F0E0E0E012968D919A
:100EC0009C9113970097B9F52D913C911197CD0105
:100ED0000296820F931F20910A0330910B0328176B
:100EE000390739F6309751F510920D0310920C0323
:100EF000B0930B03A0930A03BCCFD383C28340817A
:100F00005181840F951FC817D90761F44E5F5F4F59
:100F100088819981480F591F518340838A819B8121
:100F2000938382832115310509F0B0CFF0930D032F
:100F3000E0930C039ECFFD01DC01C0CF138212822F
:100F4000D7CFB0E0A0E0E7EAF7E00C9441068C01CF
:100F5000009751F4CB010E947C068C01C801CDB7EB
:100F6000DEB7E0E10C945D06FC01E60FF71F9C0183
:100F700022503109E217F30708F49DC0D901CD9141
:100F8000DC911197C617D70798F0C530D10530F31B
:100F9000CE0104978617970708F3C61BD70B229735
:100FA000C193D1936D937C93CF010E941807D6CF44
:100FB0005B01AC1ABD0A4C018C0E9D1EA0910C0366
:100FC000B0910D03512C412CF12CE12C109731F5EF
:100FD00080910A0390910B038815990509F05CC074
:100FE0004616570608F058C0809100019091010103
:100FF000009741F48DB79EB74091040150910501CF
:10100000841B950BE817F90708F055C0F0930B0304
:10101000E0930A03F90171836083A0CF8D919C91C5
:10102000119712966C90129713967C901397A815AF
:10103000B90559F56C0142E0C40ED11CCA14DB0499
:1010400020F1AC014A195B09DA011296159780F07C
:101050006282738251834083D9016D937C93E11442
:10106000F10471F0D7011396FC93EE93129776CFAB
:1010700022968C0F9D1FF90191838083F301EFCF9E
:10108000F0930D03E0930C0369CF4816590608F45A
:101090002C017D01D3019ACFCB010E947C067C01FB
:1010A000009749F0AE01B8010E945E08C8010E9495
:1010B0001807870153CF10E000E050CFFB01DC019F
:1010C00002C001900D9241505040D8F70895FC01A4
:1010D0008191861721F08823D9F7992708953197B0
:1010E000CF010895FB01DC0101900D920020E1F792
:1010F0000895FB01DC014150504048F001900D92F1
:101100000020C9F701C01D9241505040E0F70895FA
:04111000F894FFCF81
:1011140000000E038000000000008601A600D3003A
:10112400D3014401E2003601FFFF010181FFFFFF0B
:10113400010180FF5374617274557021000D0A001F
:0E1144004857543A48424C454F53423B000036
:00000001FF
